:020000040800F2
:1000000040040020A5060008EB040008DB050008FA
:1000100000000000000000000000000000000000E0
:100020000000000000000000000000001B060008A7
:100030009706000800000000A30600085506000807
:10004000C1060008C3060008C5060008C706000868
:10005000C9060008CB060008CD060008CF06000838
:10006000D1060008D3060008D5060008D706000808
:10007000D9060008DB06000800000000DD060008C5
:1000800000000000DF060008000000000000000083
:10009000E106000800000000E3060008E50600088D
:1000A000E7060008E9060008EB060008ED06000870
:1000B000EF060008F1060008F3060008F506000840
:1000C000F8B504000D0000BF5DA700BF48A6A02042
:1000D000C005844212D0654884420FD064488442EF
:1000E0000CD06448844209D0A648844206D0282215
:1000F0003100380000F0E2F900BF00BF102D06DB30
:1001000029223100380000F0D9F900BF00BFA069F2
:100110000121A9400143A161F1BD0000F8B504002F
:100120000D0000BF46A700BF31A6A020C005844235
:1001300012D04E4884420FD04D4884420CD04D48D6
:10014000844209D08F48844206D02F2231003800E3
:1001500000F0B4F900BF00BF102D06DB30223100E3
:10016000380000F0ABF900BF00BF60690121A94071
:1001700041406161F1BD0000F8B504000E001500BA
:100180001BA7A020C005844213D03848844210D059
:10019000374884420DD0374884420AD07948844297
:1001A00007D04522390000BF25A000F087F900BF25
:1001B00000BF102E07DB4622390000BF20A000F050
:1001C0007DF900BF00BF032D07DD4722390000BFC6
:1001D0001BA000F073F900BF00BF7000216803226C
:1001E000824091432160216885400D432560F1BD27
:1001F000433A5C55736572735C41646D696E5C4F24
:100200006E6544726976655C50524F4D412D574F73
:10021000524B5C50524F4D412D574F524B5C313237
:100220005F31375F4C43445C6961725F70726F6A23
:100230006563745C6C6C645C6770696F2E68000049
:10024000746573740000000070B500250026964C9C
:10025000A05D00F0E1F8761C0E2EF9DB6019007A43
:1002600000F092F86D1C0E2DF8DB70BD00040050FC
:1002700000080050000C005070B58C480168012245
:100280000A430260016802220A43026001680422F4
:100290000A430260016808220A430260A025ED05B6
:1002A000012208212800FFF767FF01220921280009
:1002B000FFF762FF01220A212800FFF75DFF7C4C57
:1002C000012209212000FFF757FF7A4E01220A215F
:1002D0003000FFF751FF01220B213000FFF74CFFE8
:1002E00001220C213000FFF747FF01220221724852
:1002F000FFF742FF012201212800FFF73DFF012205
:1003000002212800FFF738FF012203212800FFF710
:1003100033FF012206212800FFF72EFF01220721CB
:100320002800FFF729FF012200212000FFF724FF0A
:10033000012201212000FFF71FFF012203212000DD
:10034000FFF71AFF012204212000FFF715FF012209
:1003500005212000FFF710FF01220A212000FFF7EE
:100360000BFF01220B212000FFF706FF01220C21C9
:100370002000FFF701FF01220D212000FFF7FCFE06
:1003800070BD0000001C005001004A4BA020C005B9
:10039000474A152900D9704710B501A4645CA744E9
:1003A00014181C2024282C32383C4044484C50540B
:1003B000585C6064686C08212BE0092129E00A215F
:1003C00027E0092124E00A2102E00B2100E00C21B2
:1003D00018001EE0022138481BE0012119E002212B
:1003E00017E0032115E0062113E0072111E00021A9
:1003F0000EE001210CE003210AE0042108E00521C0
:1004000006E00A2104E00B2102E00C2100E00D21AE
:100410001000FFF755FE10BD0100264BA020C005BF
:10042000234A152900D9704710B501A4645CA7447C
:1004300014181C2024282C32383C4044484C50547A
:10044000585C6064686C08212BE0092129E00A21CE
:1004500027E0092124E00A2102E00B2100E00C2121
:1004600018001EE0022114481BE0012119E00221BE
:1004700017E0032115E0062113E0072111E0002118
:100480000EE001210CE003210AE0042108E005212F
:1004900006E00A2104E00B2102E00C2100E00D211E
:1004A0001000FFF73BFE10BD000000202C100240A2
:1004B0000004005000080050000C005000B583B04C
:1004C0000091019202906A4604491820ABBE0028B0
:1004D00001D100F005F803B000BD00BF101002000C
:1004E00080B5012000F002F801BDFEE780B500BF35
:1004F00000BF024A11001820ABBEFBE72600020035
:100500000F480168820D0A430260C1680D4A0A4023
:10051000C26001680C4A0A4002608168012291436E
:1005200081600168094A0A400260C168084A0A40BD
:10053000C260002101618020000506490860704703
:10054000001002400C40FF88F6FFF6FEFFFFFBFFA5
:10055000FFFF02FF08ED00E080B50F480068FA21B8
:10056000890000F01FF8401E80214904884212D201
:100570000A4948600A4802681202120AC0231B0690
:10058000134303600020886007200860FFF774FEB3
:10059000FFF75AFEFCE7FEE73400002010E000E021
:1005A00020ED00E0094214D088420FD30122030C51
:1005B00001D100041204002300185B418B4200D3D8
:1005C0005B1A5241F8D31900100070470100002057
:1005D000704708B500F002F808BDFEE7704730B577
:1005E00001684118446862088A188368E4070DD5D9
:1005F0004C461B190AE00C7864B2491C0D78491C62
:100600001D705B1C002C05D5641CF9D19142F2D100
:100610000C3030BD641EF1D5F8E7FEE710B5074990
:1006200079441831064C7C44163404E0081D0A68ED
:10063000891888470100A142F8D110BD08000000C8
:10064000140000009BFFFFFFAF00000066000000E9
:100650000000002005484168491C416001680029EC
:1006600002D00168491E0160704700003800002078
:1006700000F00BF8002801D0FFF7D0FF002000BFEA
:1006800000BFFFF769FF00F002F80120704780B556
:1006900000F002F801BDFEE707463846FFF726FFE7
:1006A000FBE7FEE7014880470148004701050008D5
:1006B000B506000800BF00BF00BF00BFFFF7D8FFAE
:1006C000FEE7FEE7FEE7FEE7FEE7FEE7FEE7FEE702
:1006D000FEE7FEE7FEE7FEE7FEE7FEE7FEE7FEE7F2
:1006E000FEE7FEE7FEE7FEE7FEE7FEE7FEE7FEE7E2
:1006F000FEE7FEE7FEE7001500010203040506071A
:1007000008090A0B0C0D0E0F101112131415F60028
:10071000100102030406070809030406080C101858
:0A0720002030FD000280841EF70067
:04000005080006B534
:00000001FF
