:020000040800F2
:1000000020040020910B0008090900080B090008D2
:1000100000000000000000000000000000000000E0
:100020000000000000000000000000000D090008B2
:1000300003060008000000000F090008110900086D
:100040002307000867070008450B00086F0B00082E
:10005000AD0B0008AF0B0008B10B0008B30B000894
:10006000B50B0008B70B0008B90B0008BB0B000864
:10007000BD0B0008BF0B000800000000C10B00080A
:1000800000000000C30B000800000000000000009A
:10009000C50B000800000000C70B0008C90B0008D2
:1000A000CB0B0008CD0B0008CF0B0008D10B0008CC
:1000B000D30B0008D50B0008D70B0008D90B00089C
:1000C000F8B594B0040016001A98039102A92B22E7
:1000D000885400200990019437000CE025290FD0A6
:1000E0000398019A90470390002800D1F0E0099806
:1000F000401C09907F1C39780029EFD10998E9E06C
:1001000000200690079008903C0002E001000120CA
:100110000843641C21782029F8D023290FD02B29EB
:1001200004D02D2907D030290CD0D5E001000220C1
:10013000084380B2EDE7020004201043F9E7010014
:100140000820F5E701001020F2E700210B910AE0FA
:100150000B996C4B994205DA8B00591849008918A4
:1001600030390B91641C2278110030390A29EFD301
:1001700021782E2903D00021C9430A9128E0641C6C
:1001800022782A2A0AD114990968149A11600A68F7
:10019000091D149B19600A92641C19E02D2A01D1D3
:1001A000641C00E0002200210A910CE0002A09D121
:1001B0000A9B544DAB4205DA9D00EB185B005918C1
:1001C00030390A91641C21780B00303B0A2BEDD3A7
:1001D00002A90885257829004BA000F007FA00281D
:1001E00001D0641C00E0002502A82A214554405C8F
:1001F000682807D12078682804D1622002A92A2221
:100200008854641C0DA805902378149A02A90198BB
:1002100000F0ACF8671C00285AD10B980699401AD8
:100220000899401A0799461A02A82821405C4007FD
:1002300011D4202069460870002E0CDD3400019D89
:1002400001236A4602A9280000F0A8F900283FD13E
:10025000641EF5D10195069B0DAA02A9019800F034
:100260009DF9002834D1302069460870089C002C84
:100270000BDD019D01236A4602A9280000F08EF9DA
:10028000002825D1641EF5D10195079B049A02A987
:10029000019800F083F900281AD102A82821405CB7
:1002A000400700D427E7202069460870002E00DCB4
:1002B00021E73500019C3E0001236A4602A9200087
:1002C00000F06CF9002803D16D1E00D103E7F3E7BD
:1002D0000020C04315B0F0BD2A2900D035E714999D
:1002E0000968149A11600A68091D149B19600B9221
:1002F000002A05D551420B9102000420104380B220
:10030000641C35E7CBCCCC0C686C747A4C000000D4
:10031000622810D0682801D06C2819E0002A0A68E9
:100320000A60106803D0121D0A6000B217E0121DA7
:100330000A6080B217E0002A0A680A60106803D0D9
:10034000121D0A6040B20AE0121D0A60C0B20AE043
:10035000002A0A680A60106803D0121D0A60C117DB
:100360007047121D0A6000217047000070B50C0034
:1003700011001E00E568252E00D185E0582E37D0EB
:10038000632E0ED0642E16D0692E14D06F2E2FD06F
:10039000702E4AD0732E54D0752E29D0782E27D0A7
:1003A00078E02069421C22610A680A601368121D05
:1003B0000A602B5478E001222A20205CFFF7A8FF76
:1003C0002060002804D52069411C21612D210DE009
:1003D000208D810704D52069411C21612B2105E076
:1003E000C0071DD52069411C21612021295417E037
:1003F00000222A20205CFFF78BFF20602820205C51
:1004000000070DD5206800280AD020203043782826
:1004100006D1206930212954401C411C21612E54F1
:1004200020692818A060310007E0086808600268A9
:10043000001D08602260A5607821200000F036F8D9
:1004400032E0086808600568001D0860A560002D9E
:1004500007D10024E44300BF5DA000F0D3F8201AC8
:1004600070BD266A002E03D5280000F0EFF809E0E1
:1004700032000021280000F0F1F8002801D0401BD4
:1004800000E0300060610FE02069411C21612521FE
:10049000295409E02069411C216125222A54300099
:1004A00002D0481C20616E54002070BDF0B583B0AE
:1004B0000C00C1686F2C01D1082506E020232343DE
:1004C000782B01D00A2500E01025182703681E00AC
:1004D000642C01D0692C03D1002B01D57242160087
:1004E000002E1FD1026A002A1CD1082D45D12822D6
:1004F000825C120741D517273022CA753DE00029DA
:100500000ED52821415C14230B40102B08D1416AE1
:100510000369C91A8369C91A891A012900DB816133
:1005200003B0F0BD029000917F1E019730002900BA
:1005300000F0A0F83031C9B23A2902DB200051386E
:1005400009180098C1553000290000F0EBF80600AA
:1005500005D0029880680099C9198842E4D30298AE
:100560000099082D09D12822825C120705D5CA5DA1
:10057000302A02D07F1E3022CA551822D21B426177
:10058000C9198160016A8A42B9DA891A8161018DCB
:10059000014A0A400285C3E7EFFF0000F8B50026D4
:1005A000002B12D000900F0014001D0021787868F5
:1005B000009A90477860002806D0F869401CF861DE
:1005C000641C6D1E01D0F1E7F6433000F2BD00005F
:1005D0007072696E74665F733A206261642025737D
:1005E00020617267756D656E7400000000BFC9B24E
:1005F00000E0401C02788A4202D0002AF9D1002093
:100600007047FEE780B5002801D100BF07A006496A
:100610000B68002B03D022220021984701E000F054
:100620009CF8222002BD000018000020636F6E734A
:10063000747261696E742068616E646C65723A20D0
:10064000626164206D65737361676500010000E09D
:10065000491C0A78002AFBD1081A7047C9B201E088
:10066000401C521E002A03D003788B42F8D17047F9
:10067000002070470022030A8B420BD203098B42F1
:1006800019D243088B422ED2411A00D20146524160
:1006900010467047FF2209023FD012068B4205D355
:1006A000121209028B4201D31212090203098B4272
:1006B00019D300E0090AC3098B4201D3CB01C01A48
:1006C000524183098B4201D38B01C01A5241430925
:1006D0008B4201D34B01C01A524103098B4201D313
:1006E0000B01C01A5241C3088B4201D3CB00C01A80
:1006F000524183088B4201D38B00C01A52414308F8
:100700008B4201D34B00C01A5241884200D3401A99
:100710005241CFD201461046704708B500F022F88A
:1007200008BDFEE7094214D088420FD30122030C12
:1007300001D100041204002300185B418B4200D356
:100740005B1A5241F8D319001000704701000020D5
:10075000704708B500F006F808BD80B5012000F02C
:1007600003F801BD7047FEE780B500F007F8024AC4
:1007700011001820ABBEFBE72600020010B500F008
:1007800031F802000023DB4300241068984203D0B4
:1007900011000220ABBE14605068984203D0111DB6
:1007A0000220ABBE546010BD10B584B0040000F050
:1007B00019F8A100421810680021C94388420DD1E0
:1007C00007A00090002C01D1002000E0042001903F
:1007D0000320029069460120ABBE106004B010BD3A
:1007E0003A7474000048704710000020401E8021B9
:1007F0004904884201D3012070475F4948605F483F
:1008000002681202120AC0231B0613430360002071
:1008100088600720086000207047000038B5FA2083
:10082000C000FFF7E3FF564CA06B80214905014350
:10083000A16354480168544A0A40C10C1143016045
:10084000206809210143216050484168226814232F
:100850001340142B40D04268521A652AF6D3012166
:100860000AE04268521A652A41D3022104E0436833
:100870009B1A474DAB4242D30180E06A03210143FA
:10088000E162A020C0050168424A0A40210D1143DF
:10089000016041490A68414B1340A20D1A430A60A6
:1008A00001683F4A0A408021890211430160816842
:1008B000C02292020A438260FA208001FFF796FF6D
:1008C000E068802149040143E16000BF37A40421AE
:1008D000200000F075F8FAE7E1689822D2030A4395
:1008E000E2602168802252040A4322604168226843
:1008F0009201B6D50321E2680A43E2604268E368E8
:100900000C251D40B9D1B2E77047FEE7704770472C
:10091000F8B51E484168491C416085686C1E4388D3
:1009200020216422002D16D110251E4E0788002F8D
:1009300005D1346865403560FA2464000BE007880F
:10094000FF2F08D003885B005B1EC260FA24A4005E
:10095000154F7960756184601C040BD0C468651EF6
:10096000C560002C06D1104C246861400E4C2160FB
:10097000C2605B1E4380F1BD10E000E020ED00E0AE
:100980000010024000700040FFE7FFFF0000002061
:1009900089130000FFF3FFFF00040050FFFCFFFF7E
:1009A000FFFFFCFF140400501400005054657374E2
:1009B00020737472696E67202564200A00000000AD
:1009C0000EB4C0B5020003A801900020009001AB56
:1009D0000121044878440C30FFF772FB029906B0FD
:1009E000084700BF970100000F480168820D0A43C5
:1009F0000260C1680D4A0A40C26001680C4A0A40A0
:100A0000026081680122914381600168094A0A40BD
:100A10000260C168084A0A40C2600021016180206A
:100A20000005064908607047001002400C40FF882E
:100A3000F6FFF6FEFFFFFBFFFFFF02FF08ED00E001
:100A400030B501684118446862088A188368E40771
:100A50000DD54C461B190AE00C7864B2491C0D7880
:100A6000491C1D705B1C002C05D5641CF9D19142FA
:100A7000F2D10C3030BD641EF1D5F8E710B507494E
:100A800079441831064C7C44163404E0081D0A6889
:100A9000891888470100A142F8D110BD2C00000040
:100AA0003800000010B584B00300140000930191D9
:100AB000029469460520ABBE01221900201A00BF2E
:100AC00000BF04B010BD000079FFFFFF0E01000061
:100AD0001C0000000000002030B583B00C001500A1
:100AE0000120FFF761FE0090019402956946052000
:100AF000ABBE281A03B030BD80B56946087001222C
:100B0000012000F008F8012802D16846007802BDF3
:100B10000020C04302BD80B5002802D400F003F8D5
:100B200002BD002002BD80B5002901D1002002BD18
:100B3000012801D0022802D1FFF7CEFF02BDFFF746
:100B4000B1FF02BDFEE7000000F00BF8002801D065
:100B5000FFF794FF002000BF00BFFFF75FFE00F02B
:100B600002F80120704780B500F002F801BDFEE7F1
:100B700007463846FFF7F8FDFBE738B505000C00DF
:100B80002000FFF7B9FFA04200D00025280032BDA9
:100B90000148804701480047E9090008A10B000807
:100BA00000BF00BF00BF00BFFFF7CEFFFEE7FEE7BC
:100BB000FEE7FEE7FEE7FEE7FEE7FEE7FEE7FEE70D
:100BC000FEE7FEE7FEE7FEE7FEE7FEE7FEE7FEE7FD
:100BD000FEE7FEE7FEE7FEE7FEE7F80004F40100AB
:080BE0000064FD00F8FFFC00B9
:0400000508000BA143
:00000001FF
